:100000000C94C4000C94EC000C94EC000C94EC00E8
:100010000C94EC000C94EC000C94EC000C94F902A1
:100020000C94EC000C94EC000C94EC000C94EC00A0
:100030000C94EC000C94EC000C94EC000C94EC0090
:100040000C947A050C94EC000C9425050C94FF0498
:100050000C94EC000C94EC000C94EC000C94EC0070
:100060000C94EC000C94EC00B1090D09F40878092B
:10007000B8098C09B809B809CF08B809B809B8098E
:10008000B809B809B809B809B809700838092E09BB
:10009000B8098009B809B8099C09B809B809B809AC
:1000A000B809B809B809B809B8090709EE08B809C4
:1000B000B809B809B809B809B508B809B809B8093C
:1000C000B809DB08B809B809B809DD08B80920097A
:1000D000B8098809021D288F28022914298729991F
:1000E000290C2A1E2A052A9B29912987291D2913B3
:1000F0002909299F2803290C2916291F29892992B2
:10010000299C29052A95288B28812817280F2A1928
:100110002A832A8D2A062910291A2984298E2998AA
:1001200029022A0C2A09261C268E26012713278637
:100130002798270B28000000080002010000030494
:10014000070000000000000000000000002500285B
:10015000002B0000000000240027002A00040404F3
:100160000404040404020202020202030303030360
:10017000030102040810204080010204081020013D
:100180000204081020000C1011241FBECFEFD8E08D
:10019000DEBFCDBF24E0A8E5B1E001C01D92AA3FBB
:1001A000B207E1F711E0A0E0B1E0E2E0F6E202C060
:1001B00005900D92A835B107D9F710E0C4ECD0E056
:1001C00004C02197FE010E94A312C33CD107C9F7C6
:1001D0000E94120A0C94FF120C9400008F929F92BE
:1001E000AF92BF92CF92DF92EF92FF92CF93209186
:1001F0001201293021F02F3F09F0EFC104C0E4EDD6
:10020000F0E0C49172C029E020931201E4EDF0E027
:10021000C491CF3F09F4E1C1C13009F1C23009F402
:1002200041C0C11162C014BC15BC24B5226024BDFC
:1002300025B5216025BDE6E6F1E0E491F0E0EE0FA2
:10024000FF1FE75BFE4F25913491309333032093DA
:100250003203EAE7F1E0E491E093310348C0109201
:1002600080001092810020918100286020938100FD
:1002700020918100216020938100E6E6F1E0E49185
:10028000F0E0EE0FFF1FE75BFE4F259134913093B6
:10029000300320932F03EAE7F1E0E491E0932E038B
:1002A000C1E025C01092B0001092B1002091B000C2
:1002B00022602093B0002091B10021602093B10012
:1002C000E6E6F1E0E491F0E0EE0FFF1FE75BFE4FA2
:1002D0002591349130932D0320932C03EAE7F1E02C
:1002E000E491E0932B03C2E002C0C7FD76C14C014C
:1002F00089E00E947407A12CB12C8C2F8D7F09F00E
:10030000A9C060E072E18AE790E0A50194010E9433
:10031000841269017A01BA01A901415051096109A8
:1003200071094F3F51056105710509F008F445C099
:1003300060E472E48FE090E0A50194010E948412D1
:10034000BA01A9014150510961097109C230E9F4AA
:100350004F3F51056105710509F008F43CC160E9A2
:1003600070ED83E090E0A50194010E948412BA012F
:10037000A90141505109610971094F3F51056105BA
:10038000710509F0A8F583E05EC04F3F5105610596
:100390007105A9F0A0F068E478EE81E090E0A50195
:1003A00094010E948412BA01A901415051096109C6
:1003B0007109CC2309F4BEC006C181E001C082E00E
:1003C000CC2389F040C0D701C6012AE0B595A79596
:1003D000979587952A95D1F7AC01BD0141505109F8
:1003E0006109710985E095B5987F892B85BD66C047
:1003F00068E478EE81E090E0A50194010E94841207
:10040000BA01A90141505109610971094F3F5105D4
:100410006105710509F008F48BC064E274EF80E0B7
:1004200090E0A50194010E948412BA01A9014150F3
:100430005109610971094F3F51056105710511F0BD
:1004400008F097C085E09091B100987F892B809348
:10045000B1002EC060E072E18AE790E0A50194014E
:100460000E948412BA01A901415051096109710920
:100470004115510581E06807710580F068E478EE68
:1004800081E090E0A50194010E948412BA01A901C3
:10049000415051096109710993E001C091E0C130F7
:1004A00039F480918100887F892B8093810018C066
:1004B000C130B1F0C23049F1C1118FC047BD8FEFDB
:1004C0009FEFDC0180933C0390933D03A0933E0398
:1004D000B0933F0380916E00826080936E007DC078
:1004E00050938900409388008FEF9FEFDC01809349
:1004F000380390933903A0933A03B0933B03809160
:100500006F00826080936F0068C04093B3008FEFEC
:100510009FEFDC018093340390933503A09336035F
:10052000B09337038091700082608093700055C053
:1005300084E089CF4F3F510561057105C1F0B8F0E6
:1005400062E17AE780E090E0A50194010E948412C4
:10055000BA01A90141505109610971094F3F510583
:100560006105710511F008F02ECF84E03CCF83E0E7
:100570003ACF62E17AE780E090E0A50194010E9421
:100580008412BA01A90141505109610971094F3F13
:10059000510561057105A9F0A0F0D701C6013AE047
:1005A000B595A795979587953A95D1F7AC01BD017B
:1005B0004150510961097109CC2309F413CF87E037
:1005C00042CF86E0FDCE4F3F51056105710509F030
:1005D00080F684E0F5CE82E036CFCF91FF90EF90A9
:1005E000DF90CF90BF90AF909F908F9008950E9422
:1005F000DF121F920F920FB60F9211242F933F9389
:100600004F935F936F937F938F939F93AF93BF931A
:10061000EF93FF938091340390913503A0913603BB
:10062000B0913703892B8A2B8B2B51F180912B03AF
:10063000E0912C03F0912D03908189278083809194
:10064000340390913503A0913603B0913703181607
:1006500019061A061B06C4F48091340390913503E1
:10066000A0913603B09137030197A109B109809396
:10067000340390933503A0933603B093370304C03B
:10068000809112010E949004FF91EF91BF91AF9170
:100690009F918F917F916F915F914F913F912F919A
:1006A0000F900FBE0F901F901895CF92DF92EF9290
:1006B000FF920F931F93CF93DF936C017A018B010D
:1006C000C0E0D0E0CE15DF0589F0D8016D918D0135
:1006D000D601ED91FC910190F081E02DC6010995C4
:1006E000892B11F47E0102C02196ECCFC701DF9166
:1006F000CF911F910F91FF90EF90DF90CF900895D1
:10070000089580E090E00895FC01538D448D252FDD
:1007100030E0842F90E0821B930B541710F0CF969B
:10072000089501970895FC01918D828D981761F0CD
:10073000828DDF01A80FB11D5D968C91928D9F5F18
:100740009F73928F90E008958FEF9FEF0895FC01C3
:10075000918D828D981731F0828DE80FF11D858D76
:1007600090E008958FEF9FEF0895FC01918D228D09
:10077000892F90E0805C9F4F821B91098F7399278E
:10078000089584E993E00E94B50321E0892B09F4E0
:1007900020E0822F0895FC01848DDF01A80FB11D98
:1007A000A35ABF4F2C91848D90E001968F739927A7
:1007B000848FA689B7892C93A089B1898C91806494
:1007C0008C93938D848D981306C00288F389E02D55
:1007D00080818F7D80830895EF92FF920F931F9306
:1007E000CF93DF93EC0181E0888F9B8D8C8D9813E4
:1007F00005C0E889F989808185FD24C0F62E0B8D1E
:1008000010E00F5F1F4F0F731127E02E8C8DE81241
:100810000CC00FB607FCFACFE889F989808185FF03
:10082000F5CFCE010E94CB03F1CF8B8DFE01E80FF7
:10083000F11DE35AFF4FF0820B8FEA89FB8980811B
:10084000806207C0EE89FF896083E889F989808129
:100850008064808381E090E0DF91CF911F910F91C0
:10086000FF90EF900895CF93DF93EC01888D88235C
:10087000C9F0EA89FB89808185FD05C0A889B9890D
:100880008C9186FD0FC00FB607FCF5CF808185FFE8
:10089000F2CFA889B9898C9185FFEDCFCE010E9456
:1008A000CB03E7CFDF91CF91089580E090E0892BD3
:1008B00029F00E94C10381110C94000008953FB7F4
:1008C000F8948091510390915203A0915303B091F9
:1008D000540326B5A89B05C02F3F19F00196A11D12
:1008E000B11D3FBFBA2FA92F982F8827820F911DC6
:1008F000A11DB11DBC01CD0142E0660F771F881F0D
:10090000991F4A95D1F708952B9A08952C982A9803
:100910002C9A2C9808952C982A9A2C9A2C98089501
:1009200090911201981324C0E4EDF0E0E4919FEF60
:1009300090931201E130B9F098F0E230C9F490914F
:1009400070009D7F9093700091E09093B000909123
:10095000B100987F94609093B1001092B30008C0EA
:1009600010926E0005C090916F009D7F90936F0074
:1009700090E0FC01EB5CFE4F2491FC01EF58FE4F30
:100980003491FC01E35AFE4FE491EE23B9F12223A6
:1009900039F1233091F038F42130A9F0223001F5FB
:1009A00084B58F7D12C0273091F02830A1F024301B
:1009B000B9F4809180008F7D03C0809180008F7793
:1009C000809380000DC084B58F7784BD09C080916D
:1009D000B0008F7703C08091B0008F7D8093B0000E
:1009E000F0E0EE0FFF1FE75BFE4FA591B4918FB7CC
:1009F000F894EC9130953E233C938FBF08951F925D
:100A00000F920FB60F9211242F933F934F935F9342
:100A10006F937F938F939F93AF93BF93EF93FF93C6
:100A200084E993E00E94CB03FF91EF91BF91AF91D6
:100A30009F918F917F916F915F914F913F912F91F6
:100A40000F900FBE0F901F9018951F920F920FB628
:100A50000F9211242F938F939F93EF93FF93E09125
:100A6000A403F091A5038081E091AA03F091AB0368
:100A700082FD12C090818091AD038F5F8F732091B2
:100A8000AE03821751F0E091AD03F0E0EC56FC4F5D
:100A9000958F8093AD0301C08081FF91EF919F916D
:100AA0008F912F910F900FBE0F901F9018958E3041
:100AB00008F08E508770806480937C0080917A006B
:100AC000806480937A0080917A0086FDFCCF8091CB
:100AD00078002091790090E0922B08952FB7F89438
:100AE00060914D0370914E0380914F03909150039C
:100AF0002FBF08951F920F920FB60F9211242F93BC
:100B00003F938F939F93AF93BF9380914D039091A9
:100B10004E03A0914F03B091500330914C0323E05A
:100B2000230F2D3720F40196A11DB11D05C026E825
:100B3000230F0296A11DB11D20934C0380934D03FA
:100B400090934E03A0934F03B093500380915103B1
:100B500090915203A0915303B09154030196A11DAB
:100B6000B11D8093510390935203A0935303B0930C
:100B70005403BF91AF919F918F913F912F910F900F
:100B80000FBE0F901F9018958F929F92AF92BF92B9
:100B9000CF92DF92EF92FF920E945F044B015C01C3
:100BA00089E1C82ED12CE12CF12C0E945F04DC01DC
:100BB000CB0188199909AA09BB09883E9340A10570
:100BC000B10558F021E0C21AD108E108F10888EE19
:100BD000880E83E0981EA11CB11CC114D104E1044D
:100BE000F10419F7FF90EF90DF90CF90BF90AF9096
:100BF0009F908F9008951F93CF93DF9315E0C0E0EF
:100C0000D0E083E00E945705C80FD91F1150C9F7E3
:100C1000CE0165E070E00E94701270934103609312
:100C20004003E0E4F3E02191319180819181820FD2
:100C3000931F969587959183808383E0EA34F80724
:100C400091F780914A0390914B03DF91CF911F91CF
:100C5000089580917501882319F010927701089505
:100C6000809176018F5F809376010895909159016C
:100C700091111AC090915801E92FF0E0E65AFE4F09
:100C8000808381E0890F843118F48093580102C079
:100C9000109258019091580180916E01981306C0EE
:100CA00081E080935901089580E0089581E00895DE
:100CB00010926F0181E08093110180937401109272
:100CC00070011092710110927201109273010895D7
:100CD00083E191E0909357038093560381E08093E2
:100CE00055030C9458060F931F93CF93E82FF0E011
:100CF00088E0689FE00DF11D1124EE0FFF1FEB52FD
:100D0000FF4F059114910E9484042B980E94860441
:100D10000E9486040E9486040E948B040E9486041E
:100D2000C4E10E948604C150E1F70E9484042B981C
:100D30000E9484042B980E948B040E9486040E94C7
:100D400086040E9486040E948B04C0E100FF03C059
:100D50000E948B0402C00E94860416950795C1501C
:100D6000A9F70E9486040E9486040E9486040E94BD
:100D700086040E9484042B982C982A98CF911F9166
:100D80000F91089541E050E066E571E084E993E059
:100D90000E9455036091100184E993E00C94EC03E8
:100DA000CF93DF93D82FC62F84E993E00E9484036A
:100DB0000597B4F00E94C2066D2F84E993E00E946B
:100DC000EC036C2F6F706A3010F4605D01C0695CD9
:100DD00084E993E00E94EC030E946F0781E001C068
:100DE00080E0DF91CF910895262F30E044E03595E3
:100DF00027954A95E1F72A30310514F4205D01C0AA
:100E0000295CFC0120836F706A3010F4605D01C0C2
:100E1000695CFC01618308951F93CF93DF93EC011C
:100E2000162F672F0E94F406612FCE010296DF91E4
:100E3000CF911F910C94F406FF920F931F93CF93C1
:100E4000DF9300D000D0CDB7DEB7F82E8B0184E958
:100E500093E00E9484030897CCF00E94C2066F2D95
:100E600084E993E00E94EC03B801CE0101960E9450
:100E70000C0744E050E0BE016F5F7F4F84E993E0D0
:100E80000E9455030E946F0781E001C080E00F902F
:100E90000F900F900F90DF91CF911F910F91FF90C6
:100EA0000895E7E8F3E040E050E080E090E06291F0
:100EB000262F30E06A3318F42053310902C027533B
:100EC0003109042E02C0220F331F0A94E2F7820F69
:100ED000931F4C5F5F4F4031510549F708956AE019
:100EE00084E993E00C94EC0390E0FC01EF58FE4F92
:100EF0002491FC01E35AFE4F8491882399F090E0FD
:100F0000880F991FFC01ED5AFE4FA591B491FC0189
:100F1000E75BFE4F859194918FB7F894EC91E22BAB
:100F2000EC938FBF08950F931F93CF93DF93E091BE
:100F30008203843008F4C7C0EE3409F474C078F436
:100F4000E63409F4A8C020F4E43409F4ACC010C2BB
:100F5000E83409F453C0EC3409F483C009C2EC3618
:100F600019F130F4E33509F494C0E436E1F100C23C
:100F7000ED3689F1E33709F0FBC10E945107BC014E
:100F800080E090E00E943E1020E030E040E85AE32C
:100F90000E949F1060933C0170933D0180933E013D
:100FA00090933F018DE0DEC10E945107BC0180E0BB
:100FB00090E00E943E1020E030E040E85AE30E94BA
:100FC0009F10609340017093410180934201909380
:100FD00043018EE0C7C10E94510790933B0180936B
:100FE0003A018FE0BFC1809183038A3310F48053AC
:100FF00001C0875380937F038CE0B4C18091830349
:101000008A3310F4805301C08753883040F48093B2
:101010005903609158030E9473060E94C4050E9400
:10102000680680E014C0609183036A3310F4605353
:1010300001C06753663040F46093580380915903B0
:101040000E9473060E94C4050E94680686E00E9402
:10105000360681E080937E0310927D0310927C031C
:1010600087C12091840330918303832F90E03A332A
:1010700008F0C7978295807F2A3310F4205301C06F
:101080002753820F11F0809337010E94680682E097
:101090002CC183E067C1809183038A3310F48053AD
:1010A00040C187533EC1809183038A3310F480533B
:1010B00001C0875380933801811103C089E00E94E9
:1010C000900485E031C18E2F90E0FC01E154F109DC
:1010D000E633F10508F04CC1EC5CFF4F0C94A31211
:1010E0000E946E05609378037093790380937A036E
:1010F00090937B0310927703109276031092720301
:1011000010927303109274031092750310926E0381
:1011100010926F03109270031092710310926A0381
:1011200010926B0310926C0310926D031092660381
:10113000109267031092680310926903109265037E
:10114000C1E0C09364031092F90483E391E09093AB
:10115000570380935603C09355030E94580681E0BD
:101160000E943606C0937E0303C10E946E05009163
:101170006003109161032091620330916303DC01ED
:10118000CB01801B910BA20BB30B80936003909358
:101190006103A0936203B093630385E6E3C00E94FA
:1011A0006E05609360037093610380936203909374
:1011B000630310925F0387E0D5C01092640310921E
:1011C00065038FE191E0909357038093560389E084
:1011D000809355030E94580681E087C0809159038F
:1011E000882349F0815005C080915903873018F455
:1011F0008F5F8093590360915803809159030E9437
:1012000073060E94C4050E94680680E06EC080914B
:101210005803882349F0815005C0809158038530D8
:1012200018F48F5F8093580360915803809159039D
:101230000E9473060E94C4050E94680686E055C09D
:1012400080917C0390917D03009729F00197909302
:101250007D0380937C030E94680646C080917C03D6
:1012600090917D03811524E09207A8F70196EFCFB6
:10127000C1E3D4E00E94FB058993999384E0C93FC0
:10128000D807C1F783E690E0E1E3F4E020E030E046
:101290002817390780F4419151912F5F3F4F6081AA
:1012A000718164177507A0F7DF0112976D937C9326
:1012B00051834083EDCF019739F780919504909148
:1012C00096048330910580F0029790937D0380937C
:1012D0007C0387E191E0909357038093560383E06A
:1012E000809355030E94580683E00E94360620C072
:1012F00081E090913801992309F4DCCE80E0DACEC8
:1013000081E080935E0310925D0310925C0302C043
:1013100010925E0388E026C081E09091390191111E
:1013200080E08093390189E00E9436060E946806B9
:1013300081E080937E031CC013E0C0E0D0E080E039
:101340000E945705C80FD91F1150C9F7CE0163E09D
:1013500070E00E94701270935B0360935A0387E6FB
:1013600001C08FEFDF91CF911F910F910C94360642
:10137000DF91CF911F910F910895CF92DF92EF925D
:10138000FF921F93CF93DF93CDB7DEB728970FB6A9
:10139000F894DEBF0FBECDBF182F6A017B0184E930
:1013A00093E00E9484030E9774F10E94C2066CE4DD
:1013B00084E993E00E94EC03612FCE0101960E9424
:1013C000F40642E050E0BE016F5F7F4F84E993E096
:1013D0000E945503B70188279927CE0101960E94E4
:1013E0000C07B601CE0105960E940C0748E050E0BC
:1013F000BE016F5F7F4F84E993E00E9455030E9416
:101400006F0781E001C080E028960FB6F894DEBF38
:101410000FBECDBFDF91CF911F91FF90EF90DF9076
:10142000CF900895CF93DF93CDB7DEB728970FB64F
:10143000F894DEBF0FBECDBF789484B5826084BDC2
:1014400084B5816084BD85B5826085BD85B58160C8
:1014500085BD80916E00816080936E001092810046
:101460008091810082608093810080918100816001
:1014700080938100809180008160809380008091C2
:10148000B10084608093B1008091B000816080934E
:10149000B00080917A00846080937A0080917A0015
:1014A000826080937A0080917A00816080937A00D4
:1014B00080917A00806880937A001092C1008DE05C
:1014C0000E9474072D9A89E00E94740785E00E94AB
:1014D00074075D988BE00E9474078AE00E9474078D
:1014E0008CE00E94740760915803809159030E9418
:1014F00073060E94C405E091A403F091A50382E065
:101500008083E091A003F091A1031082E091A203F7
:10151000F091A30380E180831092AC03E091A803D3
:10152000F091A90386E08083E091A603F091A703E0
:10153000808180618083E091A603F091A703808180
:1015400088608083E091A603F091A7038081806882
:101550008083E091A603F091A70380818F7D808333
:1015600080917A00846080937A0080917A008D7FE8
:1015700080937A0080917A008E7F80937A002D98F4
:1015800047E0242E5BE4352E68EE862E63E0962E2F
:1015900004E111E00E94FB057C0190932A038093F3
:1015A000290380916403882309F400C2B70180E015
:1015B00090E00E943E102B013C0120913C013091B3
:1015C0003D0140913E0150913F010E949F105B01FF
:1015D0006C0160917C0370917D0380E090E00E943B
:1015E0003E109B01AC01C601B5010E946B1218169A
:1015F00044F4C601B5010E943C1270937D036093D0
:101600007C0360917C0370917D036E157F0508F06B
:101610008FC02D980E946E052B013C0180917803AC
:1016200090917903A0917A03B0917B0373016201D9
:10163000C81AD90AEA0AFB0A209125033091260329
:10164000409127035091280321153105410551058B
:1016500041F0C701B6010E948412C20ED31EE41EDF
:10166000F51E20913701289DC001299D900D112460
:10167000092E000CAA0BBB0B8C159D05AE05BF05F2
:1016800048F080913901882309F447C080916503AF
:10169000811143C08091290390912A032091760300
:1016A000309177032817390728F5909377038093B3
:1016B0007603C0927203D0927303E0927403F092A7
:1016C000750340926E0350926F03609270037092A4
:1016D000710310926A0310926B0310926C031092C4
:1016E0006D031092660310926703109268031092C4
:1016F000690313C08217930781F4C0926A03D092E2
:101700006B03E0926C03F0926D034092660350927B
:10171000670360926803709269030E946E0560938C
:10172000210370932203809323039093240342C1E7
:1017300080E090E00E943E102091400130914101F4
:1017400040914201509143010E949F109B01AC01C6
:10175000C301B2010E94391087FF2CC1809176032A
:1017600090917703892B09F41FC180916A039091AE
:101770006B03A0916C03B0916D030097A105B105B7
:1017800009F44EC040916E0350916F036091700355
:1017900070917103411551056105710509F440C04F
:1017A000C0907203D0907303E0907403F0907503BF
:1017B0002C013D014C185D086E087F087301620121
:1017C000F694E794D794C7948C199D09AE09BF0984
:1017D0008093720390937303A0937403B093750383
:1017E0008091660390916703A0916803B0916903AB
:1017F0006C017D01C41AD50AE60AF70AB701A601F1
:101800007695679557954795841B950BA60BB70B57
:1018100080936E0390936F03A0937003B093710352
:101820000E946E05C0902103D0902203E090230314
:10183000F09024039B01AC012C193D094E095F096E
:1018400069017A01209125033091260340912703F5
:1018500050912803211531054105510541F0C7017B
:10186000B6010E948412C20ED31EE41EF51E8091A2
:101870006503833608F098C040913A0150913B01CE
:1018800060E070E04C155D056E057F0508F08CC0CA
:1018900034E0839FF0011124EF56FE4F4091720314
:1018A0005091730360917403709175034083518369
:1018B000628373838F5F80936503809190018F5F54
:1018C0008093900184E60E94360680916E03909189
:1018D0006F03A0917003B09171038093780390938C
:1018E0007903A0937A03B0937B0340E051E05093D7
:1018F000570340935603209255030E945806809147
:101900007C0390917D03389EB001399E700D1124A7
:1019100080E090E00E943E106B017C0160917603B4
:101920007091770380E090E00E943E1020913C018E
:1019300030913D0140913E0150913F010E949F1026
:1019400020E030E048EC51E40E949F109B01AC0184
:10195000C701B6010E945E1120E030E048EC52E47D
:101960000E94CA110E943C1270937D0360937C0315
:101970001092770310927603109272031092730301
:10198000109274031092750310926A0310926B0305
:1019900010926C0310926D0310926603109267030D
:1019A00010926803109269032D9A04C010927D036F
:1019B00010927C0380917F038823B1F080915C03B7
:1019C00090915D03019690935D0380935C0385364F
:1019D000910550F086E60E94360683E00E943606A6
:1019E00010925D0310925C0384E993E00E94B503BA
:1019F000882309F4F6C090918E019111F2C0909164
:101A00007901502F591B952F19F41092790194E107
:101A1000592E891708F4582E652C712CE090790105
:101A20008E2D90E0FC01E058FC4F7F016F01C60154
:101A30008E199F098615970598F50E946E0560938B
:101A40009C0370939D0380939E0390939F03E0916A
:101A50009403F09195030284F385E02D84E993E0EB
:101A6000099597FF27C00E946E0520919C03309135
:101A70009D0340919E0350919F03DC01CB01821B8B
:101A8000930BA40BB50B20919803309199034091CF
:101A90009A0350919B0382179307A407B507B8F2E6
:101AA000D0907901D50CD0927901E0E8F3E080E0A4
:101AB00090E009C0F60181936F01B9CF7C012191BB
:101AC00001962A3021F0C82E8D15C0F38AC0F4E1AA
:101AD000CF1609F486C0809180038E3409F451C07A
:101AE000823521F0833409F061C011C080918103F7
:101AF00090911001891304C08C2D0E94930760C03F
:101B00008A3209F053C08C2D0E9493074FC09091E8
:101B1000810380911001981349C0EAE8F3E020E0C6
:101B200030E040E050E0BA01A2918A2F90E0AA3361
:101B300010F4C09701C0C797092E000CAA0BBB0B6D
:101B4000022E04C0880F991FAA1FBB1F0A94D2F748
:101B5000480F591F6A1F7B1F2C5F3F4F20323105F2
:101B600019F740932503509326036093270370933E
:101B7000280310935F0387E00E94360610937E03CC
:101B80001FC090918103909310019A3310F49053E9
:101B900001C0975390937801292F30E02930310507
:101BA00014F49F5C01C0985C909381034C2D50E02D
:101BB00060E873E08AE791E00E94E412C0928E012F
:101BC0004D2D50E04E195F094F5F5F4FB7016F57C2
:101BD0007C4F80E893E00E94ED12DA94DC18D092FA
:101BE0007901F0908E01FF2051F084E993E00E948A
:101BF00084034F2D50E0481759070CF402C280911E
:101C00007701882309F43BC180917601893009F47A
:101C1000A5C020F5843009F479C088F4813009F436
:101C200059C008F44EC0823009F458C0833009F01E
:101C300024C160917C0370917D0384E5BAC0863035
:101C400009F484C008F47EC0873009F483C088306A
:101C500009F013C160915E0386E536C08E3009F449
:101C600097C0E8F48B3009F481C008F47BC08C3055
:101C700009F48AC08D3009F000C120E030E040E86E
:101C800054E460913C0170913D0180913E0190913E
:101C90003F010E949F100E943C1283E78AC0853654
:101CA00009F4ADC038F48F3009F486C0843609F4E5
:101CB00089C0E3C0863609F4D1C0873609F4D4C0A0
:101CC000DCC06091590383E40E94D006882309F4A4
:101CD000D6C0C1C06091640382E5F6CFF0903701B1
:101CE00084E993E00E94840306970CF4C8C00E9424
:101CF000C2066DE484E993E00E94EC036F2DCE01EF
:101D000001960E94F40642E050E09CC080918F0151
:101D100090916503891708F09EC024E0829FF0012E
:101D20001124EF56FE4F40815181628173810E94E0
:101D3000BD09882309F4A3C080918F018F5F809330
:101D40008F019DC06091380184E4BECF609158033B
:101D500082E4BACF60915F0389E6B6CF6091390122
:101D600086E4B2CF60917E0380E5AECF61E088E586
:101D70000E94D006882309F482C00E94290610928E
:101D80007701109375017BC060917F0384E69CCF3F
:101D900020E030E040E854E460914001709141015E
:101DA00080914201909143010E949F100E943C1239
:101DB0008CE60E941C078ACF60913A0170913B012A
:101DC0008DE6F7CF8091650390919001992309F4F6
:101DD00056C0891B34E0839FF0011124EF56FE4F5B
:101DE00040815181628173810E94BD09882309F479
:101DF00046C0809190018150809390012CC0C0908A
:101E00006003D0906103E0906203F090630384E983
:101E100093E00E9484030C9794F10E94C20669E447
:101E200084E993E00E94EC03B70188279927CE014B
:101E300001960E940C07B601CE0105960E940C0780
:101E400048E050E0BE016F5F7F4F84E993E00E945D
:101E500055030E946F070E94290611C06091290353
:101E600070912A0383E5A5CF60915A0370915B03BB
:101E70006536710580F389E59CCF109277018091DA
:101E80007701811128C080916E01909158018913CA
:101E900004C0909159019923F1F0E82FF0E0E65A3F
:101EA000FE4F90818F5F843118F480936E0102C0E1
:101EB00010926E01109259011093770110928F01C8
:101EC0009F3F29F4109276011092750104C09093FF
:101ED00076011093750180915E03882399F08091BB
:101EE0005C0390915D03019690935D0380935C0386
:101EF000893E934038F086E60E94360610925D03D4
:101F000010925C0380913801882309F477C0809196
:101F10007401882309F472C080917001909171015D
:101F2000A0917201B0917301892B8A2B8B2BD1F474
:101F300080916F012091560390915703E22FF92F62
:101F4000E80FF11DE80FF11D808191810E94EE00E4
:101F50000E946E056093700170937101809372010D
:101F6000909373010E946E053091560320915703A0
:101F7000A0911101C0907001D0907101E0907201A8
:101F8000F09073012B013C014C185D086E087F082E
:101F9000E32FF22FEA0FF11DEA0FF11D408151816D
:101FA00060E070E0441655066606770638F19091B9
:101FB0005503A91730F089E00E9490041092740133
:101FC0001DC090916F019E5F90936F0182E08A0F18
:101FD00080931101E32FF22FE90FF11DE90FF11D9D
:101FE000808191810E94EE000E946E0560937001D5
:101FF0007093710180937201909373010E94550454
:10200000C9CA6AE771E084E993E00E9455030E941F
:102010006F0710928E01F3CDE4E9F3E01382128290
:1020200088EE93E0A0E0B0E084839583A683B78335
:1020300088E491E09183808385EC90E095878487A4
:1020400084EC90E09787868780EC90E0918B808B82
:1020500081EC90E0938B828B82EC90E0958B848B6B
:1020600086EC90E0978B868B118E128E138E148ED9
:1020700008950E947B1008F481E00895E89409C057
:1020800097FB3EF490958095709561957F4F8F4FAB
:102090009F4F9923A9F0F92F96E9BB279395F695C1
:1020A000879577956795B795F111F8CFFAF4BB0F3F
:1020B00011F460FF1BC06F5F7F4F8F4F9F4F16C0A3
:1020C000882311F096E911C0772321F09EE8872F2D
:1020D000762F05C0662371F096E8862F70E060E0E9
:1020E0002AF09A95660F771F881FDAF7880F969562
:1020F000879597F90895990F0008550FAA0BE0E806
:10210000FEEF16161706E807F907C0F012161306B9
:10211000E407F50798F0621B730B840B950B39F4F9
:102120000A2661F0232B242B252B21F408950A265F
:1021300009F4A140A6958FEF811D811D08950E948D
:10214000B2100C9423110E94151138F00E941C113A
:1021500020F0952311F00C940C110C941211112401
:102160000C9457110E94341170F3959FC1F3950F91
:1021700050E0551F629FF001729FBB27F00DB11D0B
:10218000639FAA27F00DB11DAA1F649F6627B00D9B
:10219000A11D661F829F2227B00DA11D621F739F84
:1021A000B00DA11D621F839FA00D611D221F749F92
:1021B0003327A00D611D231F849F600D211D822FD9
:1021C000762F6A2F11249F5750409AF0F1F0882300
:1021D0004AF0EE0FFF1FBB1F661F771F881F91502D
:1021E0005040A9F79E3F510580F00C940C110C94BF
:1021F00057115F3FE4F3983ED4F386957795679542
:10220000B795F795E7959F5FC1F7FE2B880F911D56
:102210009695879597F9089597F99F6780E870E0FC
:1022200060E008959FEF80EC089500240A9416164C
:10223000170618060906089500240A9412161306B4
:10224000140605060895092E0394000C11F4882342
:1022500052F0BB0F40F4BF2B11F460FF04C06F5F5E
:102260007F4F8F4F9F4F089557FD9058440F551F34
:1022700059F05F3F71F04795880F97FB991F61F008
:102280009F3F79F087950895121613061406551F7F
:10229000F2CF4695F1DF08C0161617061806991FEB
:1022A000F1CF86957105610508940895E894BB27E0
:1022B00066277727CB0197F908955058BB27AA279F
:1022C0000E9475110C9423110E94151138F00E9480
:1022D0001C1120F039F49F3F19F426F40C941211CC
:1022E0000EF4E095E7FB0C940C11E92F0E943411D9
:1022F00058F3BA17620773078407950720F079F43B
:10230000A6F50C9456110EF4E0950B2EBA2FA02DC5
:102310000B01B90190010C01CA01A0011124FF2792
:10232000591B99F0593F50F4503E68F11A16F0408D
:10233000A22F232F342F4427585FF3CF469537958C
:102340002795A795F0405395C9F77EF41F16BA0B51
:10235000620B730B840BBAF09150A1F0FF0FBB1FFF
:10236000661F771F881FC2F70EC0BA0F621F731F48
:10237000841F48F4879577956795B795F7959E3FA5
:1023800008F0B0CF9395880F08F09927EE0F979536
:10239000879508950E94DE110C9423110E941C1150
:1023A00058F00E94151140F029F45F3F29F00C9479
:1023B0000C1151110C9457110C9412110E943411EC
:1023C00068F39923B1F3552391F3951B550BBB2764
:1023D000AA2762177307840738F09F5F5F4F220FA9
:1023E000331F441FAA1FA9F335D00E2E3AF0E0E8A0
:1023F00032D091505040E695001CCAF72BD0FE2FEA
:1024000029D0660F771F881FBB1F2617370748077D
:10241000AB07B0E809F0BB0B802DBF01FF27935835
:102420005F4F3AF09E3F510578F00C940C110C94DC
:1024300057115F3FE4F3983ED4F3869577956795FF
:10244000B795F7959F5FC9F7880F911D969587956A
:1024500097F90895E1E0660F771F881FBB1F621789
:1024600073078407BA0720F0621B730B840BBA0B47
:10247000EE1F88F7E09508950E943C1188F09F5761
:1024800098F0B92F9927B751B0F0E1F0660F771F98
:10249000881F991F1AF0BA95C9F714C0B13091F08E
:1024A0000E945611B1E008950C945611672F782FB1
:1024B0008827B85F39F0B93FCCF386957795679553
:1024C000B395D9F73EF490958095709561957F4FBF
:1024D0008F4F9F4F08950E947B1008F48FEF08954F
:1024E00097FB072E16F4009407D077FD09D00E94C1
:1024F000A91207FC05D03EF4909581959F4F089551
:10250000709561957F4F0895052E97FB1EF40094FA
:102510000E949B1257FD07D00E94BD1207FC03D0FA
:102520004EF40C949B1250954095309521953F4F59
:102530004F4F5F4F089590958095709561957F4FAF
:102540008F4F9F4F0895EE0FFF1F0590F491E02DE0
:102550000994AA1BBB1B51E107C0AA1FBB1FA617EA
:10256000B70710F0A61BB70B881F991F5A95A9F73C
:1025700080959095BC01CD010895A1E21A2EAA1B69
:10258000BB1BFD010DC0AA1FBB1FEE1FFF1FA21723
:10259000B307E407F50720F0A21BB30BE40BF50B20
:1025A000661F771F881F991F1A9469F760957095A9
:1025B000809590959B01AC01BD01CF01089581E00C
:1025C00090E0F8940C94FF12FB01DC0102C0019032
:1025D0000D9241505040D8F708956817790768F474
:1025E000FB01DC01E40FF51FA40FB51F02C0029030
:1025F0000E9241505040D8F708950C94E412F8948C
:02260000FFCF0A
:10260200B60332001A043200E204320046053200F8
:102612003001FF3C000A00E8036400DC056400DCD2
:1026220005780000001E00DC05780000001E00DCBA
:10263200057800DC05BC02050101F4019A99593FB5
:102642009A99593F00000000EC03550384033304B8
:08265200B5039303A703530035
:00000001FF
