:100000000C94C4000C94EC000C94EC000C94EC00E8
:100010000C94EC000C94EC000C94EC000C94F902A1
:100020000C94EC000C94EC000C94EC000C94EC00A0
:100030000C94EC000C94EC000C94EC000C94EC0090
:100040000C947A050C94EC000C9425050C94FF0498
:100050000C94EC000C94EC000C94EC000C94EC0070
:100060000C94EC000C94EC00DC0938091F09A3097E
:10007000E309B709E309E309FA08E309E309E30936
:10008000E309E309E309E309E3099B086309590963
:10009000E309AB09E309E309C709E309E309E30954
:1000A000E309E309E309E309E30932091909E3096B
:1000B000E309E309E309E309E008E309E309E309E4
:1000C000E3090609E309E309E3090809E3094B0920
:1000D000E309B309021D288F2802291429872999C9
:1000E000290C2A1E2A052A9B29912987291D2913B3
:1000F0002909299F2803290C2916291F29892992B2
:10010000299C29052A95288B28812817280F2A1928
:100110002A832A8D2A062910291A2984298E2998AA
:1001200029022A0C2A09261C268E26012713278637
:100130002798270B28000000080002010000030494
:10014000070000000000000000000000002500285B
:10015000002B0000000000240027002A00040404F3
:100160000404040404020202020202030303030360
:10017000030102040810204080010204081020013D
:10018000020408102000E81011241FBECFEFD8E0B1
:10019000DEBFCDBF25E0A0E6B1E001C01D92A830D2
:1001A000B207E1F711E0A0E0B1E0EAEBF7E202C04C
:1001B00005900D92A036B107D9F710E0C4ECD0E05D
:1001C00004C02197FE010E947F13C33CD107C9F7E9
:1001D0000E943D0A0C94DB130C9400008F929F92B6
:1001E000AF92BF92CF92DF92EF92FF92CF93209186
:1001F0001201293021F02F3F09F0EFC104C0E4EDD6
:10020000F0E0C49172C029E020931201E4EDF0E027
:10021000C491CF3F09F4E1C1C13009F1C23009F402
:1002200041C0C11162C014BC15BC24B5226024BDFC
:1002300025B5216025BDE6E6F1E0E491F0E0EE0FA2
:10024000FF1FE75BFE4F25913491309341032093CC
:100250004003EAE7F1E0E491E0933F0348C01092E5
:1002600080001092810020918100286020938100FD
:1002700020918100216020938100E6E6F1E0E49185
:10028000F0E0EE0FFF1FE75BFE4F259134913093B6
:100290003E0320933D03EAE7F1E0E491E0933C0361
:1002A000C1E025C01092B0001092B1002091B000C2
:1002B00022602093B0002091B10021602093B10012
:1002C000E6E6F1E0E491F0E0EE0FFF1FE75BFE4FA2
:1002D0002591349130933B0320933A03EAE7F1E010
:1002E000E491E0933903C2E002C0C7FD76C14C013E
:1002F00089E00E947407A12CB12C8C2F8D7F09F00E
:10030000A9C060E072E18AE790E0A50194010E9433
:10031000601369017A01BA01A901415051096109CB
:1003200071094F3F51056105710509F008F445C099
:1003300060E472E48FE090E0A50194010E946013F4
:10034000BA01A9014150510961097109C230E9F4AA
:100350004F3F51056105710509F008F43CC160E9A2
:1003600070ED83E090E0A50194010E946013BA0152
:10037000A90141505109610971094F3F51056105BA
:10038000710509F0A8F583E05EC04F3F5105610596
:100390007105A9F0A0F068E478EE81E090E0A50195
:1003A00094010E946013BA01A901415051096109E9
:1003B0007109CC2309F4BEC006C181E001C082E00E
:1003C000CC2389F040C0D701C6012AE0B595A79596
:1003D000979587952A95D1F7AC01BD0141505109F8
:1003E0006109710985E095B5987F892B85BD66C047
:1003F00068E478EE81E090E0A50194010E9460132A
:10040000BA01A90141505109610971094F3F5105D4
:100410006105710509F008F48BC064E274EF80E0B7
:1004200090E0A50194010E946013BA01A901415016
:100430005109610971094F3F51056105710511F0BD
:1004400008F097C085E09091B100987F892B809348
:10045000B1002EC060E072E18AE790E0A50194014E
:100460000E946013BA01A901415051096109710943
:100470004115510581E06807710580F068E478EE68
:1004800081E090E0A50194010E946013BA01A901E6
:10049000415051096109710993E001C091E0C130F7
:1004A00039F480918100887F892B8093810018C066
:1004B000C130B1F0C23049F1C1118FC047BD8FEFDB
:1004C0009FEFDC0180934A0390934B03A0934C036E
:1004D000B0934D0380916E00826080936E007DC06A
:1004E00050938900409388008FEF9FEFDC01809349
:1004F000460390934703A0934803B0934903809128
:100500006F00826080936F0068C04093B3008FEFEC
:100510009FEFDC018093420390934303A093440335
:10052000B09345038091700082608093700055C045
:1005300084E089CF4F3F510561057105C1F0B8F0E6
:1005400062E17AE780E090E0A50194010E946013E7
:10055000BA01A90141505109610971094F3F510583
:100560006105710511F008F02ECF84E03CCF83E0E7
:100570003ACF62E17AE780E090E0A50194010E9421
:100580006013BA01A90141505109610971094F3F36
:10059000510561057105A9F0A0F0D701C6013AE047
:1005A000B595A795979587953A95D1F7AC01BD017B
:1005B0004150510961097109CC2309F413CF87E037
:1005C00042CF86E0FDCE4F3F51056105710509F030
:1005D00080F684E0F5CE82E036CFCF91FF90EF90A9
:1005E000DF90CF90BF90AF909F908F9008950E9422
:1005F000BB131F920F920FB60F9211242F933F93AC
:100600004F935F936F937F938F939F93AF93BF931A
:10061000EF93FF938091420390914303A091440391
:10062000B0914503892B8A2B8B2B51F18091390393
:10063000E0913A03F0913B03908189278083809178
:10064000420390914303A0914403B09145031816CF
:1006500019061A061B06C4F48091420390914303C5
:10066000A0914403B09145030197A109B10980937A
:10067000420390934303A0934403B093450304C003
:10068000809112010E949004FF91EF91BF91AF9170
:100690009F918F917F916F915F914F913F912F919A
:1006A0000F900FBE0F901F901895CF92DF92EF9290
:1006B000FF920F931F93CF93DF936C017A018B010D
:1006C000C0E0D0E0CE15DF0589F0D8016D918D0135
:1006D000D601ED91FC910190F081E02DC6010995C4
:1006E000892B11F47E0102C02196ECCFC701DF9166
:1006F000CF911F910F91FF90EF90DF90CF900895D1
:10070000089580E090E00895FC01538D448D252FDD
:1007100030E0842F90E0821B930B541710F0CF969B
:10072000089501970895FC01918D828D981761F0CD
:10073000828DDF01A80FB11D5D968C91928D9F5F18
:100740009F73928F90E008958FEF9FEF0895FC01C3
:10075000918D828D981731F0828DE80FF11D858D76
:1007600090E008958FEF9FEF0895FC01918D228D09
:10077000892F90E0805C9F4F821B91098F7399278E
:10078000089582EA93E00E94B50321E0892B09F4E1
:1007900020E0822F0895FC01848DDF01A80FB11D98
:1007A000A35ABF4F2C91848D90E001968F739927A7
:1007B000848FA689B7892C93A089B1898C91806494
:1007C0008C93938D848D981306C00288F389E02D55
:1007D00080818F7D80830895EF92FF920F931F9306
:1007E000CF93DF93EC0181E0888F9B8D8C8D9813E4
:1007F00005C0E889F989808185FD24C0F62E0B8D1E
:1008000010E00F5F1F4F0F731127E02E8C8DE81241
:100810000CC00FB607FCFACFE889F989808185FF03
:10082000F5CFCE010E94CB03F1CF8B8DFE01E80FF7
:10083000F11DE35AFF4FF0820B8FEA89FB8980811B
:10084000806207C0EE89FF896083E889F989808129
:100850008064808381E090E0DF91CF911F910F91C0
:10086000FF90EF900895CF93DF93EC01888D88235C
:10087000C9F0EA89FB89808185FD05C0A889B9890D
:100880008C9186FD0FC00FB607FCF5CF808185FFE8
:10089000F2CFA889B9898C9185FFEDCFCE010E9456
:1008A000CB03E7CFDF91CF91089580E090E0892BD3
:1008B00029F00E94C10381110C94000008953FB7F4
:1008C000F89480915F0390916003A0916103B091CF
:1008D000620326B5A89B05C02F3F19F00196A11D04
:1008E000B11D3FBFBA2FA92F982F8827820F911DC6
:1008F000A11DB11DBC01CD0142E0660F771F881F0D
:10090000991F4A95D1F708952B9A08952C982A9803
:100910002C9A2C9808952C982A9A2C9A2C98089501
:1009200090911201981324C0E4EDF0E0E4919FEF60
:1009300090931201E130B9F098F0E230C9F490914F
:1009400070009D7F9093700091E09093B000909123
:10095000B100987F94609093B1001092B30008C0EA
:1009600010926E0005C090916F009D7F90936F0074
:1009700090E0FC01EB5CFE4F2491FC01EF58FE4F30
:100980003491FC01E35AFE4FE491EE23B9F12223A6
:1009900039F1233091F038F42130A9F0223001F5FB
:1009A00084B58F7D12C0273091F02830A1F024301B
:1009B000B9F4809180008F7D03C0809180008F7793
:1009C000809380000DC084B58F7784BD09C080916D
:1009D000B0008F7703C08091B0008F7D8093B0000E
:1009E000F0E0EE0FFF1FE75BFE4FA591B4918FB7CC
:1009F000F894EC9130953E233C938FBF08951F925D
:100A00000F920FB60F9211242F933F934F935F9342
:100A10006F937F938F939F93AF93BF93EF93FF93C6
:100A200082EA93E00E94CB03FF91EF91BF91AF91D7
:100A30009F918F917F916F915F914F913F912F91F6
:100A40000F900FBE0F901F9018951F920F920FB628
:100A50000F9211242F938F939F93EF93FF93E09125
:100A6000B203F091B3038081E091B803F091B90330
:100A700082FD12C090818091BB038F5F8F732091A4
:100A8000BC03821751F0E091BB03F0E0EE55FC4F40
:100A9000958F8093BB0301C08081FF91EF919F915F
:100AA0008F912F910F900FBE0F901F9018958E3041
:100AB00008F08E508770806480937C0080917A006B
:100AC000806480937A0080917A0086FDFCCF8091CB
:100AD00078002091790090E0922B08952FB7F89438
:100AE00060915B0370915C0380915D0390915E0364
:100AF0002FBF08951F920F920FB60F9211242F93BC
:100B00003F938F939F93AF93BF9380915B0390919B
:100B10005C03A0915D03B0915E0330915A0323E022
:100B2000230F2D3720F40196A11DB11D05C026E825
:100B3000230F0296A11DB11D20935A0380935B03DE
:100B400090935C03A0935D03B0935E0380915F0379
:100B500090916003A0916103B09162030196A11D81
:100B6000B11D80935F0390936003A0936103B093E2
:100B70006203BF91AF919F918F913F912F910F9001
:100B80000FBE0F901F9018958F929F92AF92BF92B9
:100B9000CF92DF92EF92FF920E945F044B015C01C3
:100BA00089E1C82ED12CE12CF12C0E945F04DC01DC
:100BB000CB0188199909AA09BB09883E9340A10570
:100BC000B10558F021E0C21AD108E108F10888EE19
:100BD000880E83E0981EA11CB11CC114D104E1044D
:100BE000F10419F7FF90EF90DF90CF90BF90AF9096
:100BF0009F908F9008951F93CF93DF9315E0C0E0EF
:100C0000D0E083E00E945705C80FD91F1150C9F7E3
:100C1000CE0165E070E00E944C1370934F03609327
:100C20004E03EEE4F3E02191319180819181820FB6
:100C3000931F969587959183808383E0E835F80725
:100C400091F78091580390915903DF91CF911F91B3
:100C5000089580917D01882319F010927F010895F5
:100C600080917E018F5F80937E0108959091610154
:100C700091111AC090916001E92FF0E0EE59FE4FFA
:100C8000808381E0890F843118F48093600102C071
:100C9000109260019091600180917601981306C0D6
:100CA00081E080936101089580E0089581E00895D6
:100CB0001092770181E08093110180937C01109262
:100CC00078011092790110927A0110927B010895B7
:100CD00083E191E0909365038093640381E08093C6
:100CE00063030C9458060F931F93CF93E82FF0E003
:100CF00088E0689FE00DF11D1124EE0FFF1FEB52FD
:100D0000FF4F059114910E9484042B980E94860441
:100D10000E9486040E9486040E948B040E9486041E
:100D2000C4E10E948604C150E1F70E9484042B981C
:100D30000E9484042B980E948B040E9486040E94C7
:100D400086040E9486040E948B04C0E100FF03C059
:100D50000E948B0402C00E94860416950795C1501C
:100D6000A9F70E9486040E9486040E9486040E94BD
:100D700086040E9484042B982C982A98CF911F9166
:100D80000F91089541E050E06EE571E082EA93E052
:100D90000E9455036091100182EA93E00C94EC03E9
:100DA000CF93DF93D82FC62F82EA93E00E9484036B
:100DB0000597B4F00E94C2066D2F82EA93E00E946C
:100DC000EC036C2F6F706A3010F4605D01C0695CD9
:100DD00082EA93E00E94EC030E946F0781E001C069
:100DE00080E0DF91CF910895262F30E044E03595E3
:100DF00027954A95E1F72A30310514F4205D01C0AA
:100E0000295CFC0120836F706A3010F4605D01C0C2
:100E1000695CFC01618308951F93CF93DF93EC011C
:100E2000162F672F0E94F406612FCE010296DF91E4
:100E3000CF911F910C94F406FF920F931F93CF93C1
:100E4000DF9300D000D0CDB7DEB7F82E8B0182EA59
:100E500093E00E9484030897CCF00E94C2066F2D95
:100E600082EA93E00E94EC03B801CE0101960E9451
:100E70000C0744E050E0BE016F5F7F4F82EA93E0D1
:100E80000E9455030E946F0781E001C080E00F902F
:100E90000F900F900F90DF91CF911F910F91FF90C6
:100EA0000895E5E9F3E040E050E080E090E06291F1
:100EB000262F30E06A3318F42053310902C027533B
:100EC0003109042E02C0220F331F0A94E2F7820F69
:100ED000931F4C5F5F4F4031510549F708956AE019
:100EE00082EA93E00C94EC0390E0FC01EF58FE4F93
:100EF0002491FC01E35AFE4F8491882399F090E0FD
:100F0000880F991FFC01ED5AFE4FA591B491FC0189
:100F1000E75BFE4F859194918FB7F894EC91E22BAB
:100F2000EC938FBF08950F931F93CF93DF93E091BE
:100F30009003843008F4F2C0E33509F4D5C090F48E
:100F4000E83409F486C038F4E43409F4D7C0E63450
:100F500009F4CCC038C2EC3409F4AEC0EE3409F464
:100F60008DC031C2ED3609F461C0E8F4E43609F40D
:100F700065C0EC3609F027C20E945107BC0180E031
:100F800090E00E941A1120E030E040E85AE30E940D
:100F90007B116093400170934101809342019093D3
:100FA00043018EE00AC2E33751F1E83709F00BC282
:100FB0000E945107BC0180E090E00E941A1120E0DD
:100FC00030E040E85AE30E947B119B01AC01609342
:100FD00048017093490180934A0190934B0160E06E
:100FE00070E080E89FE30E9439126093440170939F
:100FF0004501809346019093470180E1DEC10E9444
:101000005107BC0180E090E00E941A1120E030E01E
:1010100040E85AE30E947B1160933C0170933D01CC
:1010200080933E0190933F018DE0C7C10E9451071C
:1010300090933B0180933A018FE0BFC1809191036F
:101040008A3310F4805301C0875380938D038CE062
:10105000B4C1809191038A3310F4805301C0875347
:10106000883040F480936703609166030E947306A2
:101070000E94C4050E94680680E014C0609191033C
:101080006A3310F4605301C06753663040F46093D4
:101090006603809167030E9473060E94C4050E9444
:1010A000680686E00E94360681E080938C031092E9
:1010B0008B0310928A0387C1209192033091910390
:1010C000832F90E03A3308F0C7978295807F2A33C8
:1010D00010F4205301C02753820F11F08093370181
:1010E0000E94680682E02CC183E067C18091910371
:1010F0008A3310F4805340C187533EC180919103DD
:101100008A3310F4805301C08753809338018111D2
:1011100003C089E00E94900485E031C18E2F90E0E9
:10112000FC01E154F109E633F10508F04CC1EC5C37
:10113000FF4F0C947F130E946E056093860370939B
:1011400087038093880390938903109285031092FC
:1011500084031092800310928103109282031092F4
:10116000830310927C0310927D0310927E031092F1
:101170007F03109278031092790310927A031092F1
:101180007B031092740310927503109276031092F1
:10119000770310927303C1E0C093720310920705A6
:1011A00083E391E09093650380936403C0936303AA
:1011B0000E94580681E00E943606C0938C0303C14A
:1011C0000E946E0500916E0310916F0320917003D1
:1011D00030917103DC01CB01801B910BA20BB30B8F
:1011E00080936E0390936F03A0937003B093710389
:1011F00085E6E3C00E946E0560936E0370936F03F3
:10120000809370039093710310926D0387E0D5C0B3
:1012100010927203109273038FE191E09093650333
:101220008093640389E0809363030E94580681E001
:1012300087C080916703882349F0815005C0809161
:101240006703873018F48F5F8093670360916603AC
:10125000809167030E9473060E94C4050E9468067D
:1012600080E06EC080916603882349F0815005C0FC
:1012700080916603853018F48F5F809366036091D8
:101280006603809167030E9473060E94C4050E9452
:10129000680686E055C080918A0390918B03009781
:1012A00029F0019790938B0380938A030E9468062C
:1012B00046C080918A0390918B03811524E09207A8
:1012C000A8F70196EFCFCFE3D4E00E94FB05899306
:1012D000999385E0C730D807C1F783E690E0EFE344
:1012E000F4E020E030E02817390780F44191519173
:1012F0002F5F3F4F6081718164177507A0F7DF0191
:1013000012976D937C9351834083EDCF019739F70A
:101310008091A3049091A4048330910580F00297FA
:1013200090938B0380938A0387E191E09093650308
:101330008093640383E0809363030E94580683E0F4
:101340000E94360620C081E090913801992309F46B
:10135000DCCE80E0DACE81E080936C0310926B03E8
:1013600010926A0302C010926C0388E026C081E0EC
:1013700090913901911180E08093390189E00E94B8
:1013800036060E94680681E080938C031CC013E03F
:10139000C0E0D0E080E00E945705C80FD91F11506F
:1013A000C9F7CE0163E070E00E944C1370936903AB
:1013B0006093680388E601C08FEFDF91CF911F91A2
:1013C0000F910C943606DF91CF911F910F910895E4
:1013D000CF92DF92EF92FF921F93CF93DF93CDB71F
:1013E000DEB728970FB6F894DEBF0FBECDBF182F1B
:1013F0006A017B0182EA93E00E9484030E9774F1F4
:101400000E94C2066CE482EA93E00E94EC03612F22
:10141000CE0101960E94F40642E050E0BE016F5FEB
:101420007F4F82EA93E00E945503B70188279927EE
:10143000CE0101960E940C07B601CE0105960E94CE
:101440000C0748E050E0BE016F5F7F4F82EA93E0F7
:101450000E9455030E946F0781E001C080E028963A
:101460000FB6F894DEBF0FBECDBFDF91CF911F91B5
:10147000FF90EF90DF90CF900895CF93DF93CDB79B
:10148000DEB72A970FB6F894DEBF0FBECDBF7894B3
:1014900084B5826084BD84B5816084BD85B5826079
:1014A00085BD85B5816085BD80916E00816080932A
:1014B0006E00109281008091810082608093810093
:1014C00080918100816080938100809180008160A3
:1014D000809380008091B10084608093B1008091FE
:1014E000B00081608093B00080917A008460809326
:1014F0007A0080917A00826080937A0080917A00ED
:10150000816080937A0080917A00806880937A006D
:101510001092C1008DE00E9474072D9A89E00E940C
:10152000740785E00E9474075D988BE00E94740741
:101530008AE00E9474078CE00E9474076091660341
:10154000809167030E9473060E94C405E091B20374
:10155000F091B30382E08083E091AE03F091AF039A
:101560001082E091B003F091B10380E1808310928A
:10157000BA03E091B603F091B70386E08083E0916F
:10158000B403F091B503808180618083E091B4035E
:10159000F091B503808188608083E091B403F0917D
:1015A000B503808180688083E091B403F091B50336
:1015B00080818F7D808380917A00846080937A001F
:1015C00080917A008D7F80937A0080917A008E7F5F
:1015D00080937A002D9840E0A42E41E0B42E57E08D
:1015E000252E6BE4362E78EE872E73E0972E04E1DD
:1015F00011E00E94FB056C01909338038093370340
:1016000020E030E0A901609180017091810180911A
:101610008201909183010E941511E12CF12C81111E
:101620000CC0C701B6010E941A116093800170932B
:1016300081018093820190938301409080015090BA
:1016400081016090820170908301C701B6010E9400
:101650001A11209148013091490140914A0150915D
:101660004B010E947B116B017C0120914401309160
:1016700045014091460150914701C301B2010E94CA
:101680007B119B01AC01C701B6010E943A126B01AC
:101690007C019B01AC01C301B2010E943A1220E01F
:1016A00030E040E05FE30E947B1160938001709323
:1016B00081018093820190938301C701B6010E944A
:1016C00018137A87698770933603609335032091E6
:1016D0007203222309F403C280E090E00E941A11F1
:1016E0002B013C0120913C0130913D0140913E0194
:1016F00050913F010E947B116B017C0160918A0334
:1017000070918B0380E090E00E941A119B01AC0164
:10171000C701B6010E944713181644F4C701B60169
:101720000E94181370938B0360938A0360918A035D
:1017300070918B03C984DA846C157D0508F093C021
:101740002D980E946E052B013C018091860390919B
:101750008703A0918803B091890373016201C81ABD
:10176000D90AEA0AFB0A20913103309132034091F1
:10177000330350913403211531054105510541F0E2
:10178000C701B6010E946013C20ED31EE41EF51EEF
:1017900020913701289DC001299D900D1124092E0B
:1017A000000CAA0BBB0B8C159D05AE05BF0548F0C0
:1017B00080913901882309F44BC080917303811112
:1017C00047C0209137033091380380918403909172
:1017D00085038217930748F580913503909136036E
:1017E0009093850380938403C0928003D0928103F9
:1017F000E0928203F092830340927C0350927D0337
:1018000060927E0370927F031092780310927903A6
:1018100010927A0310927B03109274031092750356
:10182000109276031092770313C02817390781F4BA
:10183000C0927803D0927903E0927A03F0927B030E
:10184000409274035092750360927603709277030E
:101850000E946E0560932D0370932E0380932F03D7
:10186000909330035CC180E090E00E941A112091B7
:1018700040013091410140914201509143010E9449
:101880007B119B01AC01C301B2010E94151187FFBE
:1018900046C18091840390918503892B09F41DC171
:1018A0008091780390917903A0917A03B0917B03A2
:1018B0000097A105B10509F44EC040917C035091F9
:1018C0007D0360917E0370917F0341155105610591
:1018D000710509F440C0C0908003D0908103E0906E
:1018E0008203F09083032C013D014C185D086E08C3
:1018F0007F0873016201F694E794D794C7948C191A
:101900009D09AE09BF098093800390938103A09342
:101910008203B09383038091740390917503A09127
:101920007603B09177036C017D01C41AD50AE60AEB
:10193000F70AB701A6017695679557954795841BD9
:10194000950BA60BB70B80937C0390937D03A0931C
:101950007E03B0937F030E946E05C0902D03D0904C
:101960002E03E0902F03F09030039B01AC012C1963
:101970003D094E095F0969017A01209131033091D7
:101980003203409133035091340321153105410551
:10199000510541F0C701B6010E946013C20ED31E6B
:1019A000E41EF51E80917303833608F096C04091C3
:1019B0003A0150913B0160E070E04C155D056E0509
:1019C0007F0508F08AC034E0839FF0011124E356BC
:1019D000FE4F40918003509181036091820370918A
:1019E000830340835183628373838F5F8093730388
:1019F00080919C018F5F80939C0184E60E94360653
:101A000080917C0390917D03A0917E03B0917F0330
:101A10008093860390938703A0938803B0938903F0
:101A2000B0926503A0926403209263030E9458065B
:101A300080918A0390918B03389EB001399E700D7E
:101A4000112480E090E00E941A116B017C016091EA
:101A500084037091850380E090E00E941A11209128
:101A60003C0130913D0140913E0150913F010E9467
:101A70007B1120E030E048EC51E40E947B119B0197
:101A8000AC01C701B6010E943A1220E030E048ECF8
:101A900052E40E94A6120E94181370938B03609365
:101AA0008A0310928503109284031092800310928F
:101AB0008103109282031092830310927803109294
:101AC000790310927A0310927B03109274031092A0
:101AD000750310927603109277032D9A20C010920E
:101AE0008B0310928A031092850310928403109244
:101AF000800310928103109282031092830310924C
:101B000078031092790310927A0310927B0310925B
:101B100074031092750310927603109277038091EC
:101B20008D038823C9F080916A0390916B0301961D
:101B300090936B0380936A038536910568F087E67E
:101B40000E94360686E60E94360683E00E9436062C
:101B500010926B0310926A0382EA93E00E94B5032D
:101B6000882309F4F6C090919A019111F2C09091E6
:101B70008501402F491B942F19F41092850194E19F
:101B8000592E891708F4582E652C712CE090850188
:101B90008E2D90E0FC01E257FC4F7F016F01C601E2
:101BA0008E199F098615970598F50E946E0560931A
:101BB000AA037093AB038093AC039093AD03E091C1
:101BC000A203F091A3030284F385E02D82EA93E05F
:101BD000099597FF27C00E946E052091AA033091B6
:101BE000AB034091AC035091AD03DC01CB01821BF0
:101BF000930BA40BB50B2091A6033091A703409142
:101C0000A8035091A90382179307A407B507B8F258
:101C1000D0908501D50CD0928501EEE8F3E080E00C
:101C200090E009C0F60181936F01B9CF7C01219149
:101C300001962A3021F0C82E8D15C0F38AC0F4E138
:101C4000CF1609F486C080918E038E3409F451C0FA
:101C5000823521F0833409F061C011C080918F0377
:101C600090911001891304C08C2D0E94930760C0CD
:101C70008A3209F053C08C2D0E9493074FC0909177
:101C80008F0380911001981349C0E8E9F3E020E048
:101C900030E040E050E0BA01A2918A2F90E0AA33F0
:101CA00010F4C09701C0C797092E000CAA0BBB0BFC
:101CB000022E04C0880F991FAA1FBB1F0A94D2F7D7
:101CC000480F591F6A1F7B1F2C5F3F4F2032310581
:101CD00019F74093310350933203609333037093A9
:101CE000340310936D0387E00E94360610938C0333
:101CF0001FC090918F03909310019A3310F490536A
:101D000001C0975390938401292F30E02930310589
:101D100014F49F5C01C0985C90938F034C2D50E0AD
:101D20006EE873E086E891E00E94C013C0929A01C9
:101D30004D2D50E04E195F094F5F5F4FB70161575E
:101D40007C4F8EE893E00E94C913DA94DC18D0929D
:101D50008501F0909A01FF2051F082EA93E00E9401
:101D600084034F2D50E0481759070CF41EC2809190
:101D70007F01882309F45DC180917E018A3009F4D6
:101D8000ABC068F5843009F47FC088F4813009F471
:101D90005FC008F454C0823009F45EC0833009F09B
:101DA00046C160918A0370918B0384E5B8C0873087
:101DB00009F48AC050F4853009F482C0863009F0F5
:101DC00036C16091660382E43DC0883009F480C06A
:101DD000893009F02CC16091390186E433C080312B
:101DE00009F4B2C0D0F48D3009F488C050F48B30BF
:101DF00009F476C08C3009F01AC160918D0384E635
:101E000021C08E3009F48EC08F3009F010C160916E
:101E10003A0170913B018DE682C0863609F4F2C02A
:101E200038F4843609F4A2C0853609F4BCC0FFC07A
:101E3000873609F4EDC0883609F4F0C0F8C0609127
:101E4000670383E40E94D006882309F4F2C0D7C058
:101E50006091720382E5F6CFF090370182EA93E059
:101E60000E94840306970CF4E4C00E94C2066DE44D
:101E700082EA93E00E94EC036F2DCE0101960E944E
:101E8000F40642E050E0B2C080919B019091730350
:101E9000891708F0B4C024E0829FF0011124E356B2
:101EA000FE4F40815181628173810E94E80988233D
:101EB00009F4BFC080919B018F5F80939B01B9C0E3
:101EC0006091380184E4BECF60916D0389E6BACF9A
:101ED00060916C0386E5B6CF60918C0380E5B2CF4C
:101EE00061E088E50E94D006882309F4A2C00E9420
:101EF000290610927F0110937D019BC020E030E005
:101F000040E854E460913C0170913D0180913E01B4
:101F100090913F010E947B110E94181383E70E9459
:101F20001C0792CF20E030E040E854E4609140018B
:101F30007091410180914201909143010E947B1177
:101F40000E9418138CE6EBCF20E030E040E854E428
:101F5000609148017091490180914A0190914B0133
:101F60000E947B110E94181388E7D9CF80917303D8
:101F700090919C01992309F45CC0891B34E0839FF4
:101F8000F0011124E356FE4F40815181628173813B
:101F90000E94E809882309F44CC080919C0181507B
:101FA00080939C012CC0C0906E03D0906F03E09092
:101FB0007003F090710382EA93E00E9484030C970F
:101FC000C4F10E94C20669E482EA93E00E94EC0335
:101FD000B70188279927CE0101960E940C07B60108
:101FE000CE0105960E940C0748E050E0BE016F5FED
:101FF0007F4F82EA93E00E9455030E946F070E9480
:10200000290617C0609137037091380383E587CFA5
:10201000609135037091360387E581CF6091680345
:10202000709169036536710550F389E578CF109298
:102030007F0180917F01811122C080917601909172
:102040006001891304C0909161019923C1F0E82FC8
:10205000F0E0EE59FE4F90818F5F843108F4B5C0F7
:10206000109276011092610110937F0110929B01F2
:102070009F3F09F0A5C010927E0110927D018091D2
:102080006C03882399F080916A0390916B03019609
:1020900090936B0380936A03893E934038F086E601
:1020A0000E94360610926B0310926A0380913801E9
:1020B000882309F477C080917C01882309F472C0D9
:1020C0008091780190917901A0917A01B0917B0182
:1020D000892B8A2B8B2BD1F480917701209164037B
:1020E00090916503E22FF92FE80FF11DE80FF11D24
:1020F000808191810E94EE000E946E0560937801BC
:102100007093790180937A0190937B010E946E0510
:102110003091640320916503A0911101C090780172
:10212000D0907901E0907A01F0907B012B013C0185
:102130004C185D086E087F08E32FF22FEA0FF11D9F
:10214000EA0FF11D4081518160E070E044165506B0
:102150006606770638F190916303A91730F089E09D
:102160000E94900410927C011DC0909177019E5FA7
:102170009093770182E08A0F80931101E32FF22F71
:10218000E90FF11DE90FF11D808191810E94EE00A0
:102190000E946E05609378017093790180937A01B3
:1021A00090937B010E94550424CA66E871E082EA9C
:1021B00093E00E9455030E946F0710929A01D7CDB9
:1021C00090937E0110937D015ACF809376014ACF80
:1021D000E2EAF3E01382128288EE93E0A0E0B0E03E
:1021E00084839583A683B78380E591E09183808380
:1021F00085EC90E09587848784EC90E097878687CC
:1022000080EC90E0918B808B81EC90E0938B828BC3
:1022100082EC90E0958B848B86EC90E0978B868B9C
:10222000118E128E138E148E08950E94571108F489
:1022300081E00895E89409C097FB3EF4909580955D
:10224000709561957F4F8F4F9F4F9923A9F0F92F7C
:1022500096E9BB279395F695879577956795B795FA
:10226000F111F8CFFAF4BB0F11F460FF1BC06F5FE0
:102270007F4F8F4F9F4F16C0882311F096E911C0F2
:10228000772321F09EE8872F762F05C0662371F013
:1022900096E8862F70E060E02AF09A95660F771F27
:1022A000881FDAF7880F9695879597F90895990F03
:1022B0000008550FAA0BE0E8FEEF16161706E80710
:1022C000F907C0F012161306E407F50798F0621B31
:1022D000730B840B950B39F40A2661F0232B242B06
:1022E000252B21F408950A2609F4A140A6958FEF25
:1022F000811D811D08950E948E110C94FF110E9472
:10230000F11138F00E94F81120F0952311F00C948F
:10231000E8110C94EE1111240C9433120E94101247
:1023200070F3959FC1F3950F50E0551F629FF00128
:10233000729FBB27F00DB11D639FAA27F00DB11D41
:10234000AA1F649F6627B00DA11D661F829F2227CA
:10235000B00DA11D621F739FB00DA11D621F839F51
:10236000A00D611D221F749F3327A00D611D231F27
:10237000849F600D211D822F762F6A2F11249F5775
:1023800050409AF0F1F088234AF0EE0FFF1FBB1F78
:10239000661F771F881F91505040A9F79E3F510537
:1023A00080F00C94E8110C9433125F3FE4F3983EF4
:1023B000D4F3869577956795B795F795E7959F5FE1
:1023C000C1F7FE2B880F911D9695879597F9089573
:1023D00097F99F6780E870E060E008959FEF80ECD8
:1023E000089500240A94161617061806090608957B
:1023F00000240A9412161306140605060895092EE1
:102400000394000C11F4882352F0BB0F40F4BF2B4F
:1024100011F460FF04C06F5F7F4F8F4F9F4F08958F
:1024200057FD9058440F551F59F05F3F71F0479585
:10243000880F97FB991F61F09F3F79F0879508956A
:10244000121613061406551FF2CF4695F1DF08C089
:10245000161617061806991FF1CF869571056105A6
:1024600008940895E894BB2766277727CB0197F94E
:1024700008955058BB27AA270E9451120C94FF11AF
:102480000E94F11138F00E94F81120F039F49F3FBA
:1024900019F426F40C94EE110EF4E095E7FB0C947D
:1024A000E811E92F0E94101258F3BA176207730758
:1024B0008407950720F079F4A6F50C9432120EF4F7
:1024C000E0950B2EBA2FA02D0B01B90190010C0144
:1024D000CA01A0011124FF27591B99F0593F50F45C
:1024E000503E68F11A16F040A22F232F342F4427B4
:1024F000585FF3CF469537952795A795F0405395AC
:10250000C9F77EF41F16BA0B620B730B840BBAF07B
:102510009150A1F0FF0FBB1F661F771F881FC2F7E6
:102520000EC0BA0F621F731F841F48F487957795FA
:102530006795B795F7959E3F08F0B0CF9395880FB4
:1025400008F09927EE0F9795879508950E94BA1283
:102550000C94FF110E94F81158F00E94F11140F004
:1025600029F45F3F29F00C94E81151110C943312B7
:102570000C94EE110E94101268F39923B1F35523C5
:1025800091F3951B550BBB27AA2762177307840786
:1025900038F09F5F5F4F220F331F441FAA1FA9F31C
:1025A00035D00E2E3AF0E0E832D091505040E6950A
:1025B000001CCAF72BD0FE2F29D0660F771F881F6B
:1025C000BB1F261737074807AB07B0E809F0BB0B5E
:1025D000802DBF01FF2793585F4F3AF09E3F510572
:1025E00078F00C94E8110C9433125F3FE4F3983EBA
:1025F000D4F3869577956795B795F7959F5FC9F75B
:10260000880F911D9695879597F90895E1E0660FDB
:10261000771F881FBB1F621773078407BA0720F054
:10262000621B730B840BBA0BEE1F88F7E0950895BD
:102630000E94181288F09F5798F0B92F9927B75128
:10264000B0F0E1F0660F771F881F991F1AF0BA9556
:10265000C9F714C0B13091F00E943212B1E0089570
:102660000C943212672F782F8827B85F39F0B93F62
:10267000CCF3869577956795B395D9F73EF4909509
:102680008095709561957F4F8F4F9F4F08950E9461
:10269000571108F48FEF089597FB072E16F4009456
:1026A00007D077FD09D00E94851307FC05D03EF4C2
:1026B000909581959F4F0895709561957F4F0895EE
:1026C000052E97FB1EF400940E94771357FD07D048
:1026D0000E94991307FC03D04EF40C947713509585
:1026E0004095309521953F4F4F4F5F4F08959095FE
:1026F0008095709561957F4F8F4F9F4F0895EE0F96
:10270000FF1F0590F491E02D0994AA1BBB1B51E11A
:1027100007C0AA1FBB1FA617B70710F0A61BB70B51
:10272000881F991F5A95A9F780959095BC01CD01F6
:102730000895A1E21A2EAA1BBB1BFD010DC0AA1F02
:10274000BB1FEE1FFF1FA217B307E407F50720F01A
:10275000A21BB30BE40BF50B661F771F881F991F95
:102760001A9469F760957095809590959B01AC01DE
:10277000BD01CF01089581E090E0F8940C94DB1343
:10278000FB01DC0102C001900D9241505040D8F78E
:1027900008956817790768F4FB01DC01E40FF51F61
:1027A000A40FB51F02C002900E9241505040D8F7BE
:0A27B00008950C94C013F894FFCFB5
:1027BA00B60332001A043200E2043200460532003F
:1027CA003001FF3C000A00E8036400DC056400DC19
:1027DA0005780000001E00DC05780000001E00DC01
:1027EA00057800DC05BC02050101F4019A99593FFC
:1027FA009A99593F6666663FCDCCCC3D00000000F1
:10280A00EC03550384033304B5039303A70353006E
:00000001FF
